:100000000C9434000C9451000C9451000C94510049
:100010000C9451000C9451000C9451000C9451001C
:100020000C9451000C9451000C9451000C9451000C
:100030000C9451000C9451000C9451000C945100FC
:100040000C9451000C9451000C9451000C945100EC
:100050000C9451000C9451000C9451000C945100DC
:100060000C9451000C94510011241FBECFEFD8E026
:10007000DEBFCDBF11E0A0E0B1E0E6E5F2E002C0F6
:1000800005900D92A832B107D9F721E0A8E2B1E0BE
:1000900001C01D92A239B207E1F70E9478000C94CA
:1000A00029010C940000CF93C82F8A3019F48DE0F9
:1000B0000E9453008091C00085FFFCCFC093C60012
:1000C00080E090E0CF9108958091C00087FFFCCF41
:1000D0008091C60090E008951092C50087E6809355
:1000E000C40088E18093C10086E08093C200089537
:1000F0000E946C008EE091E090938D0180938C01C2
:1001000080E091E090938F0180938E018CE191E0EB
:100110000E94BB0088E291E00E94910088E291E099
:10012000F7CF0F931F93CF93DF93E0918C01F09162
:100130008D01238120FD03C080E090E017C0C92F0E
:10014000D82F082F192F80918C0190918D010E943A
:10015000EB008F3F2FEF920779F3F80181938F0126
:100160000A9789F7319710828D2F9C2FDF91CF91BD
:100170001F910F9108950F931F93CF93DF93E091F9
:100180008E01F0918F01238121FF1BC08C01D0E0F3
:10019000C0E0F80181918F0160918E0170918F0113
:1001A000DB011896ED91FC911997882331F00995A0
:1001B000892B79F3DFEFCFEFECCF8AE00995892B1C
:1001C00019F08FEF9FEF02C08D2F9C2FDF91CF9101
:1001D0001F910F910895CF93DF93EC012B8120FFA6
:1001E00033C026FF0AC02F7B2B838E819F8101960F
:1001F0009F838E838A8190E029C022FF0FC0E8810F
:10020000F9818081082E000C990B009719F4206267
:100210002B831AC03196F983E8830EC0EA85FB85EB
:10022000099597FF09C02B81019611F080E201C06A
:1002300080E1822B8B8308C02E813F812F5F3F4F4F
:100240003F832E83992702C08FEF9FEFDF91CF91DD
:060250000895F894FFCFB1
:100256000000000200000000530000000000000043
:1002660000010000000000006400000052583254F3
:080276005834455645522100A1
:00000001FF
